{"contracts/Contract.sol":{"RFID_IC":{"abi":[{"inputs":[{"internalType":"uint256","name":"_rewardAmount","type":"uint256"}],"stateMutability":"nonpayable","type":"constructor"},{"inputs":[{"internalType":"address","name":"spender","type":"address"},{"internalType":"uint256","name":"allowance","type":"uint256"},{"internalType":"uint256","name":"needed","type":"uint256"}],"name":"ERC20InsufficientAllowance","type":"error"},{"inputs":[{"internalType":"address","name":"sender","type":"address"},{"internalType":"uint256","name":"balance","type":"uint256"},{"internalType":"uint256","name":"needed","type":"uint256"}],"name":"ERC20InsufficientBalance","type":"error"},{"inputs":[{"internalType":"address","name":"approver","type":"address"}],"name":"ERC20InvalidApprover","type":"error"},{"inputs":[{"internalType":"address","name":"receiver","type":"address"}],"name":"ERC20InvalidReceiver","type":"error"},{"inputs":[{"internalType":"address","name":"sender","type":"address"}],"name":"ERC20InvalidSender","type":"error"},{"inputs":[{"internalType":"address","name":"spender","type":"address"}],"name":"ERC20InvalidSpender","type":"error"},{"anonymous":false,"inputs":[{"indexed":true,"internalType":"address","name":"owner","type":"address"},{"indexed":true,"internalType":"address","name":"spender","type":"address"},{"indexed":false,"internalType":"uint256","name":"value","type":"uint256"}],"name":"Approval","type":"event"},{"anonymous":false,"inputs":[{"indexed":true,"internalType":"address","name":"user","type":"address"},{"indexed":false,"internalType":"uint256","name":"amountSpent","type":"uint256"},{"indexed":false,"internalType":"uint256","name":"tokensEarned","type":"uint256"}],"name":"SpendingAndReward","type":"event"},{"anonymous":false,"inputs":[{"indexed":true,"internalType":"address","name":"from","type":"address"},{"indexed":true,"internalType":"address","name":"to","type":"address"},{"indexed":false,"internalType":"uint256","name":"value","type":"uint256"}],"name":"Transfer","type":"event"},{"anonymous":false,"inputs":[{"indexed":false,"internalType":"bytes8","name":"hexcode","type":"bytes8"},{"indexed":false,"internalType":"uint256","name":"tokenbalance","type":"uint256"}],"name":"UserRegistered","type":"event"},{"inputs":[{"internalType":"bytes8","name":"hexCode","type":"bytes8"}],"name":"BindWallet","outputs":[],"stateMutability":"nonpayable","type":"function"},{"inputs":[{"internalType":"bytes8","name":"hexCode","type":"bytes8"}],"name":"RFID_Scanned","outputs":[],"stateMutability":"nonpayable","type":"function"},{"inputs":[{"internalType":"address","name":"owner","type":"address"},{"internalType":"address","name":"spender","type":"address"}],"name":"allowance","outputs":[{"internalType":"uint256","name":"","type":"uint256"}],"stateMutability":"view","type":"function"},{"inputs":[{"internalType":"address","name":"spender","type":"address"},{"internalType":"uint256","name":"value","type":"uint256"}],"name":"approve","outputs":[{"internalType":"bool","name":"","type":"bool"}],"stateMutability":"nonpayable","type":"function"},{"inputs":[{"internalType":"address","name":"account","type":"address"}],"name":"balanceOf","outputs":[{"internalType":"uint256","name":"","type":"uint256"}],"stateMutability":"view","type":"function"},{"inputs":[],"name":"decimals","outputs":[{"internalType":"uint8","name":"","type":"uint8"}],"stateMutability":"view","type":"function"},{"inputs":[{"internalType":"bytes8","name":"hexCode","type":"bytes8"}],"name":"getUserData","outputs":[{"internalType":"address","name":"","type":"address"},{"internalType":"uint256","name":"","type":"uint256"}],"stateMutability":"view","type":"function"},{"inputs":[{"internalType":"bytes8","name":"hexCode","type":"bytes8"}],"name":"getUserTokenBalance","outputs":[{"internalType":"uint256","name":"","type":"uint256"}],"stateMutability":"view","type":"function"},{"inputs":[{"internalType":"bytes8","name":"hexCode","type":"bytes8"}],"name":"getUserWallet","outputs":[{"internalType":"address","name":"","type":"address"}],"stateMutability":"view","type":"function"},{"inputs":[{"internalType":"bytes8","name":"hexCode","type":"bytes8"}],"name":"isRegistered","outputs":[{"internalType":"bool","name":"","type":"bool"}],"stateMutability":"view","type":"function"},{"inputs":[],"name":"name","outputs":[{"internalType":"string","name":"","type":"string"}],"stateMutability":"view","type":"function"},{"inputs":[],"name":"rewardAmount","outputs":[{"internalType":"uint256","name":"","type":"uint256"}],"stateMutability":"view","type":"function"},{"inputs":[{"internalType":"bytes8","name":"hexCode","type":"bytes8"}],"name":"setUserData","outputs":[],"stateMutability":"nonpayable","type":"function"},{"inputs":[{"internalType":"bytes8","name":"hexCode","type":"bytes8"},{"internalType":"uint256","name":"_amountSpent","type":"uint256"}],"name":"spendAndEarn","outputs":[],"stateMutability":"nonpayable","type":"function"},{"inputs":[],"name":"symbol","outputs":[{"internalType":"string","name":"","type":"string"}],"stateMutability":"view","type":"function"},{"inputs":[],"name":"tokenAddress","outputs":[{"internalType":"address","name":"","type":"address"}],"stateMutability":"view","type":"function"},{"inputs":[],"name":"totalSupply","outputs":[{"internalType":"uint256","name":"","type":"uint256"}],"stateMutability":"view","type":"function"},{"inputs":[{"internalType":"address","name":"to","type":"address"},{"internalType":"uint256","name":"value","type":"uint256"}],"name":"transfer","outputs":[{"internalType":"bool","name":"","type":"bool"}],"stateMutability":"nonpayable","type":"function"},{"inputs":[{"internalType":"address","name":"from","type":"address"},{"internalType":"address","name":"to","type":"address"},{"internalType":"uint256","name":"value","type":"uint256"}],"name":"transferFrom","outputs":[{"internalType":"bool","name":"","type":"bool"}],"stateMutability":"nonpayable","type":"function"},{"inputs":[{"internalType":"bytes8","name":"","type":"bytes8"}],"name":"userData","outputs":[{"internalType":"address","name":"walletAddress","type":"address"},{"internalType":"uint256","name":"tokenBalance","type":"uint256"},{"internalType":"bool","name":"exists","type":"bool"},{"internalType":"bool","name":"withWallet","type":"bool"}],"stateMutability":"view","type":"function"},{"inputs":[{"internalType":"address","name":"","type":"address"}],"name":"userEarned","outputs":[{"internalType":"uint256","name":"","type":"uint256"}],"stateMutability":"view","type":"function"},{"inputs":[{"internalType":"address","name":"","type":"address"}],"name":"userSpending","outputs":[{"internalType":"uint256","name":"","type":"uint256"}],"stateMutability":"view","type":"function"}],"evm":{"bytecode":{"linkReferences":{},"object":"60806040523480156200001157600080fd5b50604051620011f1380380620011f18339810160408190526200003491620000a4565b6040518060400160405280600e81526020016d2830b6b0b9b0b432902a37b5b2b760911b815250604051806040016040528060048152602001634641524560e01b815250816003908162000089919062000163565b50600462000098828262000163565b5050506006556200022f565b600060208284031215620000b757600080fd5b5051919050565b634e487b7160e01b600052604160045260246000fd5b600181811c90821680620000e957607f821691505b6020821081036200010a57634e487b7160e01b600052602260045260246000fd5b50919050565b601f8211156200015e57600081815260208120601f850160051c81016020861015620001395750805b601f850160051c820191505b818110156200015a5782815560010162000145565b5050505b505050565b81516001600160401b038111156200017f576200017f620000be565b6200019781620001908454620000d4565b8462000110565b602080601f831160018114620001cf5760008415620001b65750858301515b600019600386901b1c1916600185901b1785556200015a565b600085815260208120601f198616915b828110156200020057888601518255948401946001909101908401620001df565b50858210156200021f5787850151600019600388901b60f8161c191681555b5050505050600190811b01905550565b610fb2806200023f6000396000f3fe608060405234801561001057600080fd5b50600436106101425760003560e01c806370a08231116100b8578063c6ccbea21161007c578063c6ccbea214610386578063c9f1e9bc14610399578063cba72540146103ac578063d4ed78ab146103cc578063dd62ed3e146103fe578063f7b2a7be1461043757600080fd5b806370a082311461031c57806395d89b41146103455780639d76ea581461034d578063a9059cbb14610360578063bd8654391461037357600080fd5b80632b01f2451161010a5780632b01f245146101c25780633101299e146101d5578063313ce5671461024c5780633619fdb61461025b5780633960506e1461027b57806342f2c9861461030957600080fd5b806302ab0cb21461014757806306fdde031461015c578063095ea7b31461017a57806318160ddd1461019d57806323b872dd146101af575b600080fd5b61015a610155366004610d90565b610440565b005b6101646105c8565b6040516101719190610dba565b60405180910390f35b61018d610188366004610e1f565b61065a565b6040519015158152602001610171565b6002545b604051908152602001610171565b61018d6101bd366004610e3b565b610674565b61015a6101d0366004610e77565b610698565b61021a6101e3366004610e77565b6009602052600090815260409020805460018201546002909201546001600160a01b03909116919060ff8082169161010090041684565b604080516001600160a01b03909516855260208501939093529015159183019190915215156060820152608001610171565b60405160128152602001610171565b6101a1610269366004610e92565b60086020526000908152604090205481565b6102f1610289366004610e77565b6001600160c01b031916600090815260096020908152604091829020825160808101845281546001600160a01b031680825260018301549382019390935260029091015460ff8082161515948301949094526101009004909216151560609092019190915290565b6040516001600160a01b039091168152602001610171565b61015a610317366004610e77565b610767565b6101a161032a366004610e92565b6001600160a01b031660009081526020819052604090205490565b6101646107a6565b6005546102f1906001600160a01b031681565b61018d61036e366004610e1f565b6107b5565b61015a610381366004610e77565b6107c3565b6101a1610394366004610e77565b6108d2565b61018d6103a7366004610e77565b6109c5565b6101a16103ba366004610e92565b60076020526000908152604090205481565b6103df6103da366004610e77565b6109ec565b604080516001600160a01b039093168352602083019190915201610171565b6101a161040c366004610ead565b6001600160a01b03918216600090815260016020908152604080832093909416825291909152205490565b6101a160065481565b600061044b836109c5565b506001905061045e565b60405180910390fd5b600061046b606484610ef6565b6001600160c01b031985166000908152600960209081526040808320546001600160a01b0316835260089091528120805492935085929091906104af908490610f18565b90915550506006546000906104c49083610f2b565b6001600160c01b031986166000908152600960209081526040808320546001600160a01b031683526007909152812080549293508392909190610508908490610f18565b90915550506001600160c01b0319851660009081526009602052604090205461054b906001600160a01b031661054683670de0b6b3a7640000610f2b565b610a54565b6001600160c01b03198516600081815260096020818152604080842080546001600160a01b0316855284835281852054959094529181526001909201929092558151868152908101839052815133927e07cc770b487aeffa608dcc3694d4da181b7f37827837479d33beb4e18d3c7b928290030190a25050505050565b6060600380546105d790610f42565b80601f016020809104026020016040519081016040528092919081815260200182805461060390610f42565b80156106505780601f1061062557610100808354040283529160200191610650565b820191906000526020600020905b81548152906001019060200180831161063357829003601f168201915b5050505050905090565b600033610668818585610a8e565b60019150505b92915050565b600033610682858285610a9b565b61068d858585610b19565b506001949350505050565b6001600160c01b031981166000908152600960205260409020600281015460ff16156107065760405162461bcd60e51b815260206004820152601760248201527f5246494420616c726561647920726567697374657265640000000000000000006044820152606401610455565b6000600182810182905560028301805460ff19169091179055604080516001600160c01b03198516815260208101929092527fc5a67488be3f7d5c212aac7ee2b6dec549bcfab2491e4a897a392221a172b70e910160405180910390a15050565b6001600160c01b0319811660009081526009602052604090206002015460ff161561079a57610795816109ec565b505050565b6107a381610698565b50565b6060600480546105d790610f42565b600033610668818585610b19565b6107cc816109c5565b156108195760405162461bcd60e51b815260206004820152601960248201527f5573657220686173206578697374696e672077616c6c65742e000000000000006044820152606401610455565b6001600160c01b0319811660009081526009602052604090206002015460ff1661087d5760405162461bcd60e51b815260206004820152601560248201527414919251081a5cdb89dd081c9959da5cdd195c9959605a1b6044820152606401610455565b6001600160c01b031916600081815260096020818152604080842080546001600160a01b03191633908117825585528483529084205494909352526001810191909155600201805461ff001916610100179055565b6001600160c01b031981166000908152600960209081526040808320815160808101835281546001600160a01b031681526001820154938101939093526002015460ff80821615159284019290925261010090041615156060820152610937836109c5565b61098e5760405162461bcd60e51b815260206004820152602260248201527f4e6f2077616c6c657420636f6e6e656374656420666f72207468697320524649604482015261221760f11b6064820152608401610455565b6001600160c01b031983166000908152600960209081526040808320546001600160a01b03168352908290529020545b9392505050565b6001600160c01b031916600090815260096020526040902060020154610100900460ff1690565b6001600160c01b031916600090815260096020908152604091829020825160808101845281546001600160a01b0316808252600183015493820184905260029092015460ff808216151595830195909552610100900490931615156060909301929092529091565b6001600160a01b038216610a7e5760405163ec442f0560e01b815260006004820152602401610455565b610a8a60008383610b74565b5050565b6107958383836001610c9e565b6001600160a01b038381166000908152600160209081526040808320938616835292905220546000198114610b135781811015610b0457604051637dc7a0d960e11b81526001600160a01b03841660048201526024810182905260448101839052606401610455565b610b1384848484036000610c9e565b50505050565b6001600160a01b038316610b4357604051634b637e8f60e11b815260006004820152602401610455565b6001600160a01b038216610b6d5760405163ec442f0560e01b815260006004820152602401610455565b6107958383835b6001600160a01b038316610b9f578060026000828254610b949190610f18565b90915550610c119050565b6001600160a01b03831660009081526020819052604090205481811015610bf25760405163391434e360e21b81526001600160a01b03851660048201526024810182905260448101839052606401610455565b6001600160a01b03841660009081526020819052604090209082900390555b6001600160a01b038216610c2d57600280548290039055610c4c565b6001600160a01b03821660009081526020819052604090208054820190555b816001600160a01b0316836001600160a01b03167fddf252ad1be2c89b69c2b068fc378daa952ba7f163c4a11628f55a4df523b3ef83604051610c9191815260200190565b60405180910390a3505050565b6001600160a01b038416610cc85760405163e602df0560e01b815260006004820152602401610455565b6001600160a01b038316610cf257604051634a1406b160e11b815260006004820152602401610455565b6001600160a01b0380851660009081526001602090815260408083209387168352929052208290558015610b1357826001600160a01b0316846001600160a01b03167f8c5be1e5ebec7d5bd14f71427d1e84f3dd0314c0f7b2291e5b200ac8c7c3b92584604051610d6591815260200190565b60405180910390a350505050565b80356001600160c01b031981168114610d8b57600080fd5b919050565b60008060408385031215610da357600080fd5b610dac83610d73565b946020939093013593505050565b600060208083528351808285015260005b81811015610de757858101830151858201604001528201610dcb565b506000604082860101526040601f19601f8301168501019250505092915050565b80356001600160a01b0381168114610d8b57600080fd5b60008060408385031215610e3257600080fd5b610dac83610e08565b600080600060608486031215610e5057600080fd5b610e5984610e08565b9250610e6760208501610e08565b9150604084013590509250925092565b600060208284031215610e8957600080fd5b6109be82610d73565b600060208284031215610ea457600080fd5b6109be82610e08565b60008060408385031215610ec057600080fd5b610ec983610e08565b9150610ed760208401610e08565b90509250929050565b634e487b7160e01b600052601160045260246000fd5b600082610f1357634e487b7160e01b600052601260045260246000fd5b500490565b8082018082111561066e5761066e610ee0565b808202811582820484141761066e5761066e610ee0565b600181811c90821680610f5657607f821691505b602082108103610f7657634e487b7160e01b600052602260045260246000fd5b5091905056fea2646970667358221220e71fb7c29a14dea2f1864725962ba802c114a2bfeb680d20dac776eda93497e364736f6c63430008140033","opcodes":"PUSH1 0x80 PUSH1 0x40 MSTORE CALLVALUE DUP1 ISZERO PUSH3 0x11 JUMPI PUSH1 0x0 DUP1 REVERT JUMPDEST POP PUSH1 0x40 MLOAD PUSH3 0x11F1 CODESIZE SUB DUP1 PUSH3 0x11F1 DUP4 CODECOPY DUP2 ADD PUSH1 0x40 DUP2 SWAP1 MSTORE PUSH3 0x34 SWAP2 PUSH3 0xA4 JUMP JUMPDEST PUSH1 0x40 MLOAD DUP1 PUSH1 0x40 ADD PUSH1 0x40 MSTORE DUP1 PUSH1 0xE DUP2 MSTORE PUSH1 0x20 ADD PUSH14 0x2830B6B0B9B0B432902A37B5B2B7 PUSH1 0x91 SHL DUP2 MSTORE POP PUSH1 0x40 MLOAD DUP1 PUSH1 0x40 ADD PUSH1 0x40 MSTORE DUP1 PUSH1 0x4 DUP2 MSTORE PUSH1 0x20 ADD PUSH4 0x46415245 PUSH1 0xE0 SHL DUP2 MSTORE POP DUP2 PUSH1 0x3 SWAP1 DUP2 PUSH3 0x89 SWAP2 SWAP1 PUSH3 0x163 JUMP JUMPDEST POP PUSH1 0x4 PUSH3 0x98 DUP3 DUP3 PUSH3 0x163 JUMP JUMPDEST POP POP POP PUSH1 0x6 SSTORE PUSH3 0x22F JUMP JUMPDEST PUSH1 0x0 PUSH1 0x20 DUP3 DUP5 SUB SLT ISZERO PUSH3 0xB7 JUMPI PUSH1 0x0 DUP1 REVERT JUMPDEST POP MLOAD SWAP2 SWAP1 POP JUMP JUMPDEST PUSH4 0x4E487B71 PUSH1 0xE0 SHL PUSH1 0x0 MSTORE PUSH1 0x41 PUSH1 0x4 MSTORE PUSH1 0x24 PUSH1 0x0 REVERT JUMPDEST PUSH1 0x1 DUP2 DUP2 SHR SWAP1 DUP3 AND DUP1 PUSH3 0xE9 JUMPI PUSH1 0x7F DUP3 AND SWAP2 POP JUMPDEST PUSH1 0x20 DUP3 LT DUP2 SUB PUSH3 0x10A JUMPI PUSH4 0x4E487B71 PUSH1 0xE0 SHL PUSH1 0x0 MSTORE PUSH1 0x22 PUSH1 0x4 MSTORE PUSH1 0x24 PUSH1 0x0 REVERT JUMPDEST POP SWAP2 SWAP1 POP JUMP JUMPDEST PUSH1 0x1F DUP3 GT ISZERO PUSH3 0x15E JUMPI PUSH1 0x0 DUP2 DUP2 MSTORE PUSH1 0x20 DUP2 KECCAK256 PUSH1 0x1F DUP6 ADD PUSH1 0x5 SHR DUP2 ADD PUSH1 0x20 DUP7 LT ISZERO PUSH3 0x139 JUMPI POP DUP1 JUMPDEST PUSH1 0x1F DUP6 ADD PUSH1 0x5 SHR DUP3 ADD SWAP2 POP JUMPDEST DUP2 DUP2 LT ISZERO PUSH3 0x15A JUMPI DUP3 DUP2 SSTORE PUSH1 0x1 ADD PUSH3 0x145 JUMP JUMPDEST POP POP POP JUMPDEST POP POP POP JUMP JUMPDEST DUP2 MLOAD PUSH1 0x1 PUSH1 0x1 PUSH1 0x40 SHL SUB DUP2 GT ISZERO PUSH3 0x17F JUMPI PUSH3 0x17F PUSH3 0xBE JUMP JUMPDEST PUSH3 0x197 DUP2 PUSH3 0x190 DUP5 SLOAD PUSH3 0xD4 JUMP JUMPDEST DUP5 PUSH3 0x110 JUMP JUMPDEST PUSH1 0x20 DUP1 PUSH1 0x1F DUP4 GT PUSH1 0x1 DUP2 EQ PUSH3 0x1CF JUMPI PUSH1 0x0 DUP5 ISZERO PUSH3 0x1B6 JUMPI POP DUP6 DUP4 ADD MLOAD JUMPDEST PUSH1 0x0 NOT PUSH1 0x3 DUP7 SWAP1 SHL SHR NOT AND PUSH1 0x1 DUP6 SWAP1 SHL OR DUP6 SSTORE PUSH3 0x15A JUMP JUMPDEST PUSH1 0x0 DUP6 DUP2 MSTORE PUSH1 0x20 DUP2 KECCAK256 PUSH1 0x1F NOT DUP7 AND SWAP2 JUMPDEST DUP3 DUP2 LT ISZERO PUSH3 0x200 JUMPI DUP9 DUP7 ADD MLOAD DUP3 SSTORE SWAP5 DUP5 ADD SWAP5 PUSH1 0x1 SWAP1 SWAP2 ADD SWAP1 DUP5 ADD PUSH3 0x1DF JUMP JUMPDEST POP DUP6 DUP3 LT ISZERO PUSH3 0x21F JUMPI DUP8 DUP6 ADD MLOAD PUSH1 0x0 NOT PUSH1 0x3 DUP9 SWAP1 SHL PUSH1 0xF8 AND SHR NOT AND DUP2 SSTORE JUMPDEST POP POP POP POP POP PUSH1 0x1 SWAP1 DUP2 SHL ADD SWAP1 SSTORE POP JUMP JUMPDEST PUSH2 0xFB2 DUP1 PUSH3 0x23F PUSH1 0x0 CODECOPY PUSH1 0x0 RETURN INVALID PUSH1 0x80 PUSH1 0x40 MSTORE CALLVALUE DUP1 ISZERO PUSH2 0x10 JUMPI PUSH1 0x0 DUP1 REVERT JUMPDEST POP PUSH1 0x4 CALLDATASIZE LT PUSH2 0x142 JUMPI PUSH1 0x0 CALLDATALOAD PUSH1 0xE0 SHR DUP1 PUSH4 0x70A08231 GT PUSH2 0xB8 JUMPI DUP1 PUSH4 0xC6CCBEA2 GT PUSH2 0x7C JUMPI DUP1 PUSH4 0xC6CCBEA2 EQ PUSH2 0x386 JUMPI DUP1 PUSH4 0xC9F1E9BC EQ PUSH2 0x399 JUMPI DUP1 PUSH4 0xCBA72540 EQ PUSH2 0x3AC JUMPI DUP1 PUSH4 0xD4ED78AB EQ PUSH2 0x3CC JUMPI DUP1 PUSH4 0xDD62ED3E EQ PUSH2 0x3FE JUMPI DUP1 PUSH4 0xF7B2A7BE EQ PUSH2 0x437 JUMPI PUSH1 0x0 DUP1 REVERT JUMPDEST DUP1 PUSH4 0x70A08231 EQ PUSH2 0x31C JUMPI DUP1 PUSH4 0x95D89B41 EQ PUSH2 0x345 JUMPI DUP1 PUSH4 0x9D76EA58 EQ PUSH2 0x34D JUMPI DUP1 PUSH4 0xA9059CBB EQ PUSH2 0x360 JUMPI DUP1 PUSH4 0xBD865439 EQ PUSH2 0x373 JUMPI PUSH1 0x0 DUP1 REVERT JUMPDEST DUP1 PUSH4 0x2B01F245 GT PUSH2 0x10A JUMPI DUP1 PUSH4 0x2B01F245 EQ PUSH2 0x1C2 JUMPI DUP1 PUSH4 0x3101299E EQ PUSH2 0x1D5 JUMPI DUP1 PUSH4 0x313CE567 EQ PUSH2 0x24C JUMPI DUP1 PUSH4 0x3619FDB6 EQ PUSH2 0x25B JUMPI DUP1 PUSH4 0x3960506E EQ PUSH2 0x27B JUMPI DUP1 PUSH4 0x42F2C986 EQ PUSH2 0x309 JUMPI PUSH1 0x0 DUP1 REVERT JUMPDEST DUP1 PUSH4 0x2AB0CB2 EQ PUSH2 0x147 JUMPI DUP1 PUSH4 0x6FDDE03 EQ PUSH2 0x15C JUMPI DUP1 PUSH4 0x95EA7B3 EQ PUSH2 0x17A JUMPI DUP1 PUSH4 0x18160DDD EQ PUSH2 0x19D JUMPI DUP1 PUSH4 0x23B872DD EQ PUSH2 0x1AF JUMPI JUMPDEST PUSH1 0x0 DUP1 REVERT JUMPDEST PUSH2 0x15A PUSH2 0x155 CALLDATASIZE PUSH1 0x4 PUSH2 0xD90 JUMP JUMPDEST PUSH2 0x440 JUMP JUMPDEST STOP JUMPDEST PUSH2 0x164 PUSH2 0x5C8 JUMP JUMPDEST PUSH1 0x40 MLOAD PUSH2 0x171 SWAP2 SWAP1 PUSH2 0xDBA JUMP JUMPDEST PUSH1 0x40 MLOAD DUP1 SWAP2 SUB SWAP1 RETURN JUMPDEST PUSH2 0x18D PUSH2 0x188 CALLDATASIZE PUSH1 0x4 PUSH2 0xE1F JUMP JUMPDEST PUSH2 0x65A JUMP JUMPDEST PUSH1 0x40 MLOAD SWAP1 ISZERO ISZERO DUP2 MSTORE PUSH1 0x20 ADD PUSH2 0x171 JUMP JUMPDEST PUSH1 0x2 SLOAD JUMPDEST PUSH1 0x40 MLOAD SWAP1 DUP2 MSTORE PUSH1 0x20 ADD PUSH2 0x171 JUMP JUMPDEST PUSH2 0x18D PUSH2 0x1BD CALLDATASIZE PUSH1 0x4 PUSH2 0xE3B JUMP JUMPDEST PUSH2 0x674 JUMP JUMPDEST PUSH2 0x15A PUSH2 0x1D0 CALLDATASIZE PUSH1 0x4 PUSH2 0xE77 JUMP JUMPDEST PUSH2 0x698 JUMP JUMPDEST PUSH2 0x21A PUSH2 0x1E3 CALLDATASIZE PUSH1 0x4 PUSH2 0xE77 JUMP JUMPDEST PUSH1 0x9 PUSH1 0x20 MSTORE PUSH1 0x0 SWAP1 DUP2 MSTORE PUSH1 0x40 SWAP1 KECCAK256 DUP1 SLOAD PUSH1 0x1 DUP3 ADD SLOAD PUSH1 0x2 SWAP1 SWAP3 ADD SLOAD PUSH1 0x1 PUSH1 0x1 PUSH1 0xA0 SHL SUB SWAP1 SWAP2 AND SWAP2 SWAP1 PUSH1 0xFF DUP1 DUP3 AND SWAP2 PUSH2 0x100 SWAP1 DIV AND DUP5 JUMP JUMPDEST PUSH1 0x40 DUP1 MLOAD PUSH1 0x1 PUSH1 0x1 PUSH1 0xA0 SHL SUB SWAP1 SWAP6 AND DUP6 MSTORE PUSH1 0x20 DUP6 ADD SWAP4 SWAP1 SWAP4 MSTORE SWAP1 ISZERO ISZERO SWAP2 DUP4 ADD SWAP2 SWAP1 SWAP2 MSTORE ISZERO ISZERO PUSH1 0x60 DUP3 ADD MSTORE PUSH1 0x80 ADD PUSH2 0x171 JUMP JUMPDEST PUSH1 0x40 MLOAD PUSH1 0x12 DUP2 MSTORE PUSH1 0x20 ADD PUSH2 0x171 JUMP JUMPDEST PUSH2 0x1A1 PUSH2 0x269 CALLDATASIZE PUSH1 0x4 PUSH2 0xE92 JUMP JUMPDEST PUSH1 0x8 PUSH1 0x20 MSTORE PUSH1 0x0 SWAP1 DUP2 MSTORE PUSH1 0x40 SWAP1 KECCAK256 SLOAD DUP2 JUMP JUMPDEST PUSH2 0x2F1 PUSH2 0x289 CALLDATASIZE PUSH1 0x4 PUSH2 0xE77 JUMP JUMPDEST PUSH1 0x1 PUSH1 0x1 PUSH1 0xC0 SHL SUB NOT AND PUSH1 0x0 SWAP1 DUP2 MSTORE PUSH1 0x9 PUSH1 0x20 SWAP1 DUP2 MSTORE PUSH1 0x40 SWAP2 DUP3 SWAP1 KECCAK256 DUP3 MLOAD PUSH1 0x80 DUP2 ADD DUP5 MSTORE DUP2 SLOAD PUSH1 0x1 PUSH1 0x1 PUSH1 0xA0 SHL SUB AND DUP1 DUP3 MSTORE PUSH1 0x1 DUP4 ADD SLOAD SWAP4 DUP3 ADD SWAP4 SWAP1 SWAP4 MSTORE PUSH1 0x2 SWAP1 SWAP2 ADD SLOAD PUSH1 0xFF DUP1 DUP3 AND ISZERO ISZERO SWAP5 DUP4 ADD SWAP5 SWAP1 SWAP5 MSTORE PUSH2 0x100 SWAP1 DIV SWAP1 SWAP3 AND ISZERO ISZERO PUSH1 0x60 SWAP1 SWAP3 ADD SWAP2 SWAP1 SWAP2 MSTORE SWAP1 JUMP JUMPDEST PUSH1 0x40 MLOAD PUSH1 0x1 PUSH1 0x1 PUSH1 0xA0 SHL SUB SWAP1 SWAP2 AND DUP2 MSTORE PUSH1 0x20 ADD PUSH2 0x171 JUMP JUMPDEST PUSH2 0x15A PUSH2 0x317 CALLDATASIZE PUSH1 0x4 PUSH2 0xE77 JUMP JUMPDEST PUSH2 0x767 JUMP JUMPDEST PUSH2 0x1A1 PUSH2 0x32A CALLDATASIZE PUSH1 0x4 PUSH2 0xE92 JUMP JUMPDEST PUSH1 0x1 PUSH1 0x1 PUSH1 0xA0 SHL SUB AND PUSH1 0x0 SWAP1 DUP2 MSTORE PUSH1 0x20 DUP2 SWAP1 MSTORE PUSH1 0x40 SWAP1 KECCAK256 SLOAD SWAP1 JUMP JUMPDEST PUSH2 0x164 PUSH2 0x7A6 JUMP JUMPDEST PUSH1 0x5 SLOAD PUSH2 0x2F1 SWAP1 PUSH1 0x1 PUSH1 0x1 PUSH1 0xA0 SHL SUB AND DUP2 JUMP JUMPDEST PUSH2 0x18D PUSH2 0x36E CALLDATASIZE PUSH1 0x4 PUSH2 0xE1F JUMP JUMPDEST PUSH2 0x7B5 JUMP JUMPDEST PUSH2 0x15A PUSH2 0x381 CALLDATASIZE PUSH1 0x4 PUSH2 0xE77 JUMP JUMPDEST PUSH2 0x7C3 JUMP JUMPDEST PUSH2 0x1A1 PUSH2 0x394 CALLDATASIZE PUSH1 0x4 PUSH2 0xE77 JUMP JUMPDEST PUSH2 0x8D2 JUMP JUMPDEST PUSH2 0x18D PUSH2 0x3A7 CALLDATASIZE PUSH1 0x4 PUSH2 0xE77 JUMP JUMPDEST PUSH2 0x9C5 JUMP JUMPDEST PUSH2 0x1A1 PUSH2 0x3BA CALLDATASIZE PUSH1 0x4 PUSH2 0xE92 JUMP JUMPDEST PUSH1 0x7 PUSH1 0x20 MSTORE PUSH1 0x0 SWAP1 DUP2 MSTORE PUSH1 0x40 SWAP1 KECCAK256 SLOAD DUP2 JUMP JUMPDEST PUSH2 0x3DF PUSH2 0x3DA CALLDATASIZE PUSH1 0x4 PUSH2 0xE77 JUMP JUMPDEST PUSH2 0x9EC JUMP JUMPDEST PUSH1 0x40 DUP1 MLOAD PUSH1 0x1 PUSH1 0x1 PUSH1 0xA0 SHL SUB SWAP1 SWAP4 AND DUP4 MSTORE PUSH1 0x20 DUP4 ADD SWAP2 SWAP1 SWAP2 MSTORE ADD PUSH2 0x171 JUMP JUMPDEST PUSH2 0x1A1 PUSH2 0x40C CALLDATASIZE PUSH1 0x4 PUSH2 0xEAD JUMP JUMPDEST PUSH1 0x1 PUSH1 0x1 PUSH1 0xA0 SHL SUB SWAP2 DUP3 AND PUSH1 0x0 SWAP1 DUP2 MSTORE PUSH1 0x1 PUSH1 0x20 SWAP1 DUP2 MSTORE PUSH1 0x40 DUP1 DUP4 KECCAK256 SWAP4 SWAP1 SWAP5 AND DUP3 MSTORE SWAP2 SWAP1 SWAP2 MSTORE KECCAK256 SLOAD SWAP1 JUMP JUMPDEST PUSH2 0x1A1 PUSH1 0x6 SLOAD DUP2 JUMP JUMPDEST PUSH1 0x0 PUSH2 0x44B DUP4 PUSH2 0x9C5 JUMP JUMPDEST POP PUSH1 0x1 SWAP1 POP PUSH2 0x45E JUMP JUMPDEST PUSH1 0x40 MLOAD DUP1 SWAP2 SUB SWAP1 REVERT JUMPDEST PUSH1 0x0 PUSH2 0x46B PUSH1 0x64 DUP5 PUSH2 0xEF6 JUMP JUMPDEST PUSH1 0x1 PUSH1 0x1 PUSH1 0xC0 SHL SUB NOT DUP6 AND PUSH1 0x0 SWAP1 DUP2 MSTORE PUSH1 0x9 PUSH1 0x20 SWAP1 DUP2 MSTORE PUSH1 0x40 DUP1 DUP4 KECCAK256 SLOAD PUSH1 0x1 PUSH1 0x1 PUSH1 0xA0 SHL SUB AND DUP4 MSTORE PUSH1 0x8 SWAP1 SWAP2 MSTORE DUP2 KECCAK256 DUP1 SLOAD SWAP3 SWAP4 POP DUP6 SWAP3 SWAP1 SWAP2 SWAP1 PUSH2 0x4AF SWAP1 DUP5 SWAP1 PUSH2 0xF18 JUMP JUMPDEST SWAP1 SWAP2 SSTORE POP POP PUSH1 0x6 SLOAD PUSH1 0x0 SWAP1 PUSH2 0x4C4 SWAP1 DUP4 PUSH2 0xF2B JUMP JUMPDEST PUSH1 0x1 PUSH1 0x1 PUSH1 0xC0 SHL SUB NOT DUP7 AND PUSH1 0x0 SWAP1 DUP2 MSTORE PUSH1 0x9 PUSH1 0x20 SWAP1 DUP2 MSTORE PUSH1 0x40 DUP1 DUP4 KECCAK256 SLOAD PUSH1 0x1 PUSH1 0x1 PUSH1 0xA0 SHL SUB AND DUP4 MSTORE PUSH1 0x7 SWAP1 SWAP2 MSTORE DUP2 KECCAK256 DUP1 SLOAD SWAP3 SWAP4 POP DUP4 SWAP3 SWAP1 SWAP2 SWAP1 PUSH2 0x508 SWAP1 DUP5 SWAP1 PUSH2 0xF18 JUMP JUMPDEST SWAP1 SWAP2 SSTORE POP POP PUSH1 0x1 PUSH1 0x1 PUSH1 0xC0 SHL SUB NOT DUP6 AND PUSH1 0x0 SWAP1 DUP2 MSTORE PUSH1 0x9 PUSH1 0x20 MSTORE PUSH1 0x40 SWAP1 KECCAK256 SLOAD PUSH2 0x54B SWAP1 PUSH1 0x1 PUSH1 0x1 PUSH1 0xA0 SHL SUB AND PUSH2 0x546 DUP4 PUSH8 0xDE0B6B3A7640000 PUSH2 0xF2B JUMP JUMPDEST PUSH2 0xA54 JUMP JUMPDEST PUSH1 0x1 PUSH1 0x1 PUSH1 0xC0 SHL SUB NOT DUP6 AND PUSH1 0x0 DUP2 DUP2 MSTORE PUSH1 0x9 PUSH1 0x20 DUP2 DUP2 MSTORE PUSH1 0x40 DUP1 DUP5 KECCAK256 DUP1 SLOAD PUSH1 0x1 PUSH1 0x1 PUSH1 0xA0 SHL SUB AND DUP6 MSTORE DUP5 DUP4 MSTORE DUP2 DUP6 KECCAK256 SLOAD SWAP6 SWAP1 SWAP5 MSTORE SWAP2 DUP2 MSTORE PUSH1 0x1 SWAP1 SWAP3 ADD SWAP3 SWAP1 SWAP3 SSTORE DUP2 MLOAD DUP7 DUP2 MSTORE SWAP1 DUP2 ADD DUP4 SWAP1 MSTORE DUP2 MLOAD CALLER SWAP3 PUSH31 0x7CC770B487AEFFA608DCC3694D4DA181B7F37827837479D33BEB4E18D3C7B SWAP3 DUP3 SWAP1 SUB ADD SWAP1 LOG2 POP POP POP POP POP JUMP JUMPDEST PUSH1 0x60 PUSH1 0x3 DUP1 SLOAD PUSH2 0x5D7 SWAP1 PUSH2 0xF42 JUMP JUMPDEST DUP1 PUSH1 0x1F ADD PUSH1 0x20 DUP1 SWAP2 DIV MUL PUSH1 0x20 ADD PUSH1 0x40 MLOAD SWAP1 DUP2 ADD PUSH1 0x40 MSTORE DUP1 SWAP3 SWAP2 SWAP1 DUP2 DUP2 MSTORE PUSH1 0x20 ADD DUP3 DUP1 SLOAD PUSH2 0x603 SWAP1 PUSH2 0xF42 JUMP JUMPDEST DUP1 ISZERO PUSH2 0x650 JUMPI DUP1 PUSH1 0x1F LT PUSH2 0x625 JUMPI PUSH2 0x100 DUP1 DUP4 SLOAD DIV MUL DUP4 MSTORE SWAP2 PUSH1 0x20 ADD SWAP2 PUSH2 0x650 JUMP JUMPDEST DUP3 ADD SWAP2 SWAP1 PUSH1 0x0 MSTORE PUSH1 0x20 PUSH1 0x0 KECCAK256 SWAP1 JUMPDEST DUP2 SLOAD DUP2 MSTORE SWAP1 PUSH1 0x1 ADD SWAP1 PUSH1 0x20 ADD DUP1 DUP4 GT PUSH2 0x633 JUMPI DUP3 SWAP1 SUB PUSH1 0x1F AND DUP3 ADD SWAP2 JUMPDEST POP POP POP POP POP SWAP1 POP SWAP1 JUMP JUMPDEST PUSH1 0x0 CALLER PUSH2 0x668 DUP2 DUP6 DUP6 PUSH2 0xA8E JUMP JUMPDEST PUSH1 0x1 SWAP2 POP POP JUMPDEST SWAP3 SWAP2 POP POP JUMP JUMPDEST PUSH1 0x0 CALLER PUSH2 0x682 DUP6 DUP3 DUP6 PUSH2 0xA9B JUMP JUMPDEST PUSH2 0x68D DUP6 DUP6 DUP6 PUSH2 0xB19 JUMP JUMPDEST POP PUSH1 0x1 SWAP5 SWAP4 POP POP POP POP JUMP JUMPDEST PUSH1 0x1 PUSH1 0x1 PUSH1 0xC0 SHL SUB NOT DUP2 AND PUSH1 0x0 SWAP1 DUP2 MSTORE PUSH1 0x9 PUSH1 0x20 MSTORE PUSH1 0x40 SWAP1 KECCAK256 PUSH1 0x2 DUP2 ADD SLOAD PUSH1 0xFF AND ISZERO PUSH2 0x706 JUMPI PUSH1 0x40 MLOAD PUSH3 0x461BCD PUSH1 0xE5 SHL DUP2 MSTORE PUSH1 0x20 PUSH1 0x4 DUP3 ADD MSTORE PUSH1 0x17 PUSH1 0x24 DUP3 ADD MSTORE PUSH32 0x5246494420616C72656164792072656769737465726564000000000000000000 PUSH1 0x44 DUP3 ADD MSTORE PUSH1 0x64 ADD PUSH2 0x455 JUMP JUMPDEST PUSH1 0x0 PUSH1 0x1 DUP3 DUP2 ADD DUP3 SWAP1 SSTORE PUSH1 0x2 DUP4 ADD DUP1 SLOAD PUSH1 0xFF NOT AND SWAP1 SWAP2 OR SWAP1 SSTORE PUSH1 0x40 DUP1 MLOAD PUSH1 0x1 PUSH1 0x1 PUSH1 0xC0 SHL SUB NOT DUP6 AND DUP2 MSTORE PUSH1 0x20 DUP2 ADD SWAP3 SWAP1 SWAP3 MSTORE PUSH32 0xC5A67488BE3F7D5C212AAC7EE2B6DEC549BCFAB2491E4A897A392221A172B70E SWAP2 ADD PUSH1 0x40 MLOAD DUP1 SWAP2 SUB SWAP1 LOG1 POP POP JUMP JUMPDEST PUSH1 0x1 PUSH1 0x1 PUSH1 0xC0 SHL SUB NOT DUP2 AND PUSH1 0x0 SWAP1 DUP2 MSTORE PUSH1 0x9 PUSH1 0x20 MSTORE PUSH1 0x40 SWAP1 KECCAK256 PUSH1 0x2 ADD SLOAD PUSH1 0xFF AND ISZERO PUSH2 0x79A JUMPI PUSH2 0x795 DUP2 PUSH2 0x9EC JUMP JUMPDEST POP POP POP JUMP JUMPDEST PUSH2 0x7A3 DUP2 PUSH2 0x698 JUMP JUMPDEST POP JUMP JUMPDEST PUSH1 0x60 PUSH1 0x4 DUP1 SLOAD PUSH2 0x5D7 SWAP1 PUSH2 0xF42 JUMP JUMPDEST PUSH1 0x0 CALLER PUSH2 0x668 DUP2 DUP6 DUP6 PUSH2 0xB19 JUMP JUMPDEST PUSH2 0x7CC DUP2 PUSH2 0x9C5 JUMP JUMPDEST ISZERO PUSH2 0x819 JUMPI PUSH1 0x40 MLOAD PUSH3 0x461BCD PUSH1 0xE5 SHL DUP2 MSTORE PUSH1 0x20 PUSH1 0x4 DUP3 ADD MSTORE PUSH1 0x19 PUSH1 0x24 DUP3 ADD MSTORE PUSH32 0x5573657220686173206578697374696E672077616C6C65742E00000000000000 PUSH1 0x44 DUP3 ADD MSTORE PUSH1 0x64 ADD PUSH2 0x455 JUMP JUMPDEST PUSH1 0x1 PUSH1 0x1 PUSH1 0xC0 SHL SUB NOT DUP2 AND PUSH1 0x0 SWAP1 DUP2 MSTORE PUSH1 0x9 PUSH1 0x20 MSTORE PUSH1 0x40 SWAP1 KECCAK256 PUSH1 0x2 ADD SLOAD PUSH1 0xFF AND PUSH2 0x87D JUMPI PUSH1 0x40 MLOAD PUSH3 0x461BCD PUSH1 0xE5 SHL DUP2 MSTORE PUSH1 0x20 PUSH1 0x4 DUP3 ADD MSTORE PUSH1 0x15 PUSH1 0x24 DUP3 ADD MSTORE PUSH21 0x14919251081A5CDB89DD081C9959DA5CDD195C9959 PUSH1 0x5A SHL PUSH1 0x44 DUP3 ADD MSTORE PUSH1 0x64 ADD PUSH2 0x455 JUMP JUMPDEST PUSH1 0x1 PUSH1 0x1 PUSH1 0xC0 SHL SUB NOT AND PUSH1 0x0 DUP2 DUP2 MSTORE PUSH1 0x9 PUSH1 0x20 DUP2 DUP2 MSTORE PUSH1 0x40 DUP1 DUP5 KECCAK256 DUP1 SLOAD PUSH1 0x1 PUSH1 0x1 PUSH1 0xA0 SHL SUB NOT AND CALLER SWAP1 DUP2 OR DUP3 SSTORE DUP6 MSTORE DUP5 DUP4 MSTORE SWAP1 DUP5 KECCAK256 SLOAD SWAP5 SWAP1 SWAP4 MSTORE MSTORE PUSH1 0x1 DUP2 ADD SWAP2 SWAP1 SWAP2 SSTORE PUSH1 0x2 ADD DUP1 SLOAD PUSH2 0xFF00 NOT AND PUSH2 0x100 OR SWAP1 SSTORE JUMP JUMPDEST PUSH1 0x1 PUSH1 0x1 PUSH1 0xC0 SHL SUB NOT DUP2 AND PUSH1 0x0 SWAP1 DUP2 MSTORE PUSH1 0x9 PUSH1 0x20 SWAP1 DUP2 MSTORE PUSH1 0x40 DUP1 DUP4 KECCAK256 DUP2 MLOAD PUSH1 0x80 DUP2 ADD DUP4 MSTORE DUP2 SLOAD PUSH1 0x1 PUSH1 0x1 PUSH1 0xA0 SHL SUB AND DUP2 MSTORE PUSH1 0x1 DUP3 ADD SLOAD SWAP4 DUP2 ADD SWAP4 SWAP1 SWAP4 MSTORE PUSH1 0x2 ADD SLOAD PUSH1 0xFF DUP1 DUP3 AND ISZERO ISZERO SWAP3 DUP5 ADD SWAP3 SWAP1 SWAP3 MSTORE PUSH2 0x100 SWAP1 DIV AND ISZERO ISZERO PUSH1 0x60 DUP3 ADD MSTORE PUSH2 0x937 DUP4 PUSH2 0x9C5 JUMP JUMPDEST PUSH2 0x98E JUMPI PUSH1 0x40 MLOAD PUSH3 0x461BCD PUSH1 0xE5 SHL DUP2 MSTORE PUSH1 0x20 PUSH1 0x4 DUP3 ADD MSTORE PUSH1 0x22 PUSH1 0x24 DUP3 ADD MSTORE PUSH32 0x4E6F2077616C6C657420636F6E6E656374656420666F72207468697320524649 PUSH1 0x44 DUP3 ADD MSTORE PUSH2 0x2217 PUSH1 0xF1 SHL PUSH1 0x64 DUP3 ADD MSTORE PUSH1 0x84 ADD PUSH2 0x455 JUMP JUMPDEST PUSH1 0x1 PUSH1 0x1 PUSH1 0xC0 SHL SUB NOT DUP4 AND PUSH1 0x0 SWAP1 DUP2 MSTORE PUSH1 0x9 PUSH1 0x20 SWAP1 DUP2 MSTORE PUSH1 0x40 DUP1 DUP4 KECCAK256 SLOAD PUSH1 0x1 PUSH1 0x1 PUSH1 0xA0 SHL SUB AND DUP4 MSTORE SWAP1 DUP3 SWAP1 MSTORE SWAP1 KECCAK256 SLOAD JUMPDEST SWAP4 SWAP3 POP POP POP JUMP JUMPDEST PUSH1 0x1 PUSH1 0x1 PUSH1 0xC0 SHL SUB NOT AND PUSH1 0x0 SWAP1 DUP2 MSTORE PUSH1 0x9 PUSH1 0x20 MSTORE PUSH1 0x40 SWAP1 KECCAK256 PUSH1 0x2 ADD SLOAD PUSH2 0x100 SWAP1 DIV PUSH1 0xFF AND SWAP1 JUMP JUMPDEST PUSH1 0x1 PUSH1 0x1 PUSH1 0xC0 SHL SUB NOT AND PUSH1 0x0 SWAP1 DUP2 MSTORE PUSH1 0x9 PUSH1 0x20 SWAP1 DUP2 MSTORE PUSH1 0x40 SWAP2 DUP3 SWAP1 KECCAK256 DUP3 MLOAD PUSH1 0x80 DUP2 ADD DUP5 MSTORE DUP2 SLOAD PUSH1 0x1 PUSH1 0x1 PUSH1 0xA0 SHL SUB AND DUP1 DUP3 MSTORE PUSH1 0x1 DUP4 ADD SLOAD SWAP4 DUP3 ADD DUP5 SWAP1 MSTORE PUSH1 0x2 SWAP1 SWAP3 ADD SLOAD PUSH1 0xFF DUP1 DUP3 AND ISZERO ISZERO SWAP6 DUP4 ADD SWAP6 SWAP1 SWAP6 MSTORE PUSH2 0x100 SWAP1 DIV SWAP1 SWAP4 AND ISZERO ISZERO PUSH1 0x60 SWAP1 SWAP4 ADD SWAP3 SWAP1 SWAP3 MSTORE SWAP1 SWAP2 JUMP JUMPDEST PUSH1 0x1 PUSH1 0x1 PUSH1 0xA0 SHL SUB DUP3 AND PUSH2 0xA7E JUMPI PUSH1 0x40 MLOAD PUSH4 0xEC442F05 PUSH1 0xE0 SHL DUP2 MSTORE PUSH1 0x0 PUSH1 0x4 DUP3 ADD MSTORE PUSH1 0x24 ADD PUSH2 0x455 JUMP JUMPDEST PUSH2 0xA8A PUSH1 0x0 DUP4 DUP4 PUSH2 0xB74 JUMP JUMPDEST POP POP JUMP JUMPDEST PUSH2 0x795 DUP4 DUP4 DUP4 PUSH1 0x1 PUSH2 0xC9E JUMP JUMPDEST PUSH1 0x1 PUSH1 0x1 PUSH1 0xA0 SHL SUB DUP4 DUP2 AND PUSH1 0x0 SWAP1 DUP2 MSTORE PUSH1 0x1 PUSH1 0x20 SWAP1 DUP2 MSTORE PUSH1 0x40 DUP1 DUP4 KECCAK256 SWAP4 DUP7 AND DUP4 MSTORE SWAP3 SWAP1 MSTORE KECCAK256 SLOAD PUSH1 0x0 NOT DUP2 EQ PUSH2 0xB13 JUMPI DUP2 DUP2 LT ISZERO PUSH2 0xB04 JUMPI PUSH1 0x40 MLOAD PUSH4 0x7DC7A0D9 PUSH1 0xE1 SHL DUP2 MSTORE PUSH1 0x1 PUSH1 0x1 PUSH1 0xA0 SHL SUB DUP5 AND PUSH1 0x4 DUP3 ADD MSTORE PUSH1 0x24 DUP2 ADD DUP3 SWAP1 MSTORE PUSH1 0x44 DUP2 ADD DUP4 SWAP1 MSTORE PUSH1 0x64 ADD PUSH2 0x455 JUMP JUMPDEST PUSH2 0xB13 DUP5 DUP5 DUP5 DUP5 SUB PUSH1 0x0 PUSH2 0xC9E JUMP JUMPDEST POP POP POP POP JUMP JUMPDEST PUSH1 0x1 PUSH1 0x1 PUSH1 0xA0 SHL SUB DUP4 AND PUSH2 0xB43 JUMPI PUSH1 0x40 MLOAD PUSH4 0x4B637E8F PUSH1 0xE1 SHL DUP2 MSTORE PUSH1 0x0 PUSH1 0x4 DUP3 ADD MSTORE PUSH1 0x24 ADD PUSH2 0x455 JUMP JUMPDEST PUSH1 0x1 PUSH1 0x1 PUSH1 0xA0 SHL SUB DUP3 AND PUSH2 0xB6D JUMPI PUSH1 0x40 MLOAD PUSH4 0xEC442F05 PUSH1 0xE0 SHL DUP2 MSTORE PUSH1 0x0 PUSH1 0x4 DUP3 ADD MSTORE PUSH1 0x24 ADD PUSH2 0x455 JUMP JUMPDEST PUSH2 0x795 DUP4 DUP4 DUP4 JUMPDEST PUSH1 0x1 PUSH1 0x1 PUSH1 0xA0 SHL SUB DUP4 AND PUSH2 0xB9F JUMPI DUP1 PUSH1 0x2 PUSH1 0x0 DUP3 DUP3 SLOAD PUSH2 0xB94 SWAP2 SWAP1 PUSH2 0xF18 JUMP JUMPDEST SWAP1 SWAP2 SSTORE POP PUSH2 0xC11 SWAP1 POP JUMP JUMPDEST PUSH1 0x1 PUSH1 0x1 PUSH1 0xA0 SHL SUB DUP4 AND PUSH1 0x0 SWAP1 DUP2 MSTORE PUSH1 0x20 DUP2 SWAP1 MSTORE PUSH1 0x40 SWAP1 KECCAK256 SLOAD DUP2 DUP2 LT ISZERO PUSH2 0xBF2 JUMPI PUSH1 0x40 MLOAD PUSH4 0x391434E3 PUSH1 0xE2 SHL DUP2 MSTORE PUSH1 0x1 PUSH1 0x1 PUSH1 0xA0 SHL SUB DUP6 AND PUSH1 0x4 DUP3 ADD MSTORE PUSH1 0x24 DUP2 ADD DUP3 SWAP1 MSTORE PUSH1 0x44 DUP2 ADD DUP4 SWAP1 MSTORE PUSH1 0x64 ADD PUSH2 0x455 JUMP JUMPDEST PUSH1 0x1 PUSH1 0x1 PUSH1 0xA0 SHL SUB DUP5 AND PUSH1 0x0 SWAP1 DUP2 MSTORE PUSH1 0x20 DUP2 SWAP1 MSTORE PUSH1 0x40 SWAP1 KECCAK256 SWAP1 DUP3 SWAP1 SUB SWAP1 SSTORE JUMPDEST PUSH1 0x1 PUSH1 0x1 PUSH1 0xA0 SHL SUB DUP3 AND PUSH2 0xC2D JUMPI PUSH1 0x2 DUP1 SLOAD DUP3 SWAP1 SUB SWAP1 SSTORE PUSH2 0xC4C JUMP JUMPDEST PUSH1 0x1 PUSH1 0x1 PUSH1 0xA0 SHL SUB DUP3 AND PUSH1 0x0 SWAP1 DUP2 MSTORE PUSH1 0x20 DUP2 SWAP1 MSTORE PUSH1 0x40 SWAP1 KECCAK256 DUP1 SLOAD DUP3 ADD SWAP1 SSTORE JUMPDEST DUP2 PUSH1 0x1 PUSH1 0x1 PUSH1 0xA0 SHL SUB AND DUP4 PUSH1 0x1 PUSH1 0x1 PUSH1 0xA0 SHL SUB AND PUSH32 0xDDF252AD1BE2C89B69C2B068FC378DAA952BA7F163C4A11628F55A4DF523B3EF DUP4 PUSH1 0x40 MLOAD PUSH2 0xC91 SWAP2 DUP2 MSTORE PUSH1 0x20 ADD SWAP1 JUMP JUMPDEST PUSH1 0x40 MLOAD DUP1 SWAP2 SUB SWAP1 LOG3 POP POP POP JUMP JUMPDEST PUSH1 0x1 PUSH1 0x1 PUSH1 0xA0 SHL SUB DUP5 AND PUSH2 0xCC8 JUMPI PUSH1 0x40 MLOAD PUSH4 0xE602DF05 PUSH1 0xE0 SHL DUP2 MSTORE PUSH1 0x0 PUSH1 0x4 DUP3 ADD MSTORE PUSH1 0x24 ADD PUSH2 0x455 JUMP JUMPDEST PUSH1 0x1 PUSH1 0x1 PUSH1 0xA0 SHL SUB DUP4 AND PUSH2 0xCF2 JUMPI PUSH1 0x40 MLOAD PUSH4 0x4A1406B1 PUSH1 0xE1 SHL DUP2 MSTORE PUSH1 0x0 PUSH1 0x4 DUP3 ADD MSTORE PUSH1 0x24 ADD PUSH2 0x455 JUMP JUMPDEST PUSH1 0x1 PUSH1 0x1 PUSH1 0xA0 SHL SUB DUP1 DUP6 AND PUSH1 0x0 SWAP1 DUP2 MSTORE PUSH1 0x1 PUSH1 0x20 SWAP1 DUP2 MSTORE PUSH1 0x40 DUP1 DUP4 KECCAK256 SWAP4 DUP8 AND DUP4 MSTORE SWAP3 SWAP1 MSTORE KECCAK256 DUP3 SWAP1 SSTORE DUP1 ISZERO PUSH2 0xB13 JUMPI DUP3 PUSH1 0x1 PUSH1 0x1 PUSH1 0xA0 SHL SUB AND DUP5 PUSH1 0x1 PUSH1 0x1 PUSH1 0xA0 SHL SUB AND PUSH32 0x8C5BE1E5EBEC7D5BD14F71427D1E84F3DD0314C0F7B2291E5B200AC8C7C3B925 DUP5 PUSH1 0x40 MLOAD PUSH2 0xD65 SWAP2 DUP2 MSTORE PUSH1 0x20 ADD SWAP1 JUMP JUMPDEST PUSH1 0x40 MLOAD DUP1 SWAP2 SUB SWAP1 LOG3 POP POP POP POP JUMP JUMPDEST DUP1 CALLDATALOAD PUSH1 0x1 PUSH1 0x1 PUSH1 0xC0 SHL SUB NOT DUP2 AND DUP2 EQ PUSH2 0xD8B JUMPI PUSH1 0x0 DUP1 REVERT JUMPDEST SWAP2 SWAP1 POP JUMP JUMPDEST PUSH1 0x0 DUP1 PUSH1 0x40 DUP4 DUP6 SUB SLT ISZERO PUSH2 0xDA3 JUMPI PUSH1 0x0 DUP1 REVERT JUMPDEST PUSH2 0xDAC DUP4 PUSH2 0xD73 JUMP JUMPDEST SWAP5 PUSH1 0x20 SWAP4 SWAP1 SWAP4 ADD CALLDATALOAD SWAP4 POP POP POP JUMP JUMPDEST PUSH1 0x0 PUSH1 0x20 DUP1 DUP4 MSTORE DUP4 MLOAD DUP1 DUP3 DUP6 ADD MSTORE PUSH1 0x0 JUMPDEST DUP2 DUP2 LT ISZERO PUSH2 0xDE7 JUMPI DUP6 DUP2 ADD DUP4 ADD MLOAD DUP6 DUP3 ADD PUSH1 0x40 ADD MSTORE DUP3 ADD PUSH2 0xDCB JUMP JUMPDEST POP PUSH1 0x0 PUSH1 0x40 DUP3 DUP7 ADD ADD MSTORE PUSH1 0x40 PUSH1 0x1F NOT PUSH1 0x1F DUP4 ADD AND DUP6 ADD ADD SWAP3 POP POP POP SWAP3 SWAP2 POP POP JUMP JUMPDEST DUP1 CALLDATALOAD PUSH1 0x1 PUSH1 0x1 PUSH1 0xA0 SHL SUB DUP2 AND DUP2 EQ PUSH2 0xD8B JUMPI PUSH1 0x0 DUP1 REVERT JUMPDEST PUSH1 0x0 DUP1 PUSH1 0x40 DUP4 DUP6 SUB SLT ISZERO PUSH2 0xE32 JUMPI PUSH1 0x0 DUP1 REVERT JUMPDEST PUSH2 0xDAC DUP4 PUSH2 0xE08 JUMP JUMPDEST PUSH1 0x0 DUP1 PUSH1 0x0 PUSH1 0x60 DUP5 DUP7 SUB SLT ISZERO PUSH2 0xE50 JUMPI PUSH1 0x0 DUP1 REVERT JUMPDEST PUSH2 0xE59 DUP5 PUSH2 0xE08 JUMP JUMPDEST SWAP3 POP PUSH2 0xE67 PUSH1 0x20 DUP6 ADD PUSH2 0xE08 JUMP JUMPDEST SWAP2 POP PUSH1 0x40 DUP5 ADD CALLDATALOAD SWAP1 POP SWAP3 POP SWAP3 POP SWAP3 JUMP JUMPDEST PUSH1 0x0 PUSH1 0x20 DUP3 DUP5 SUB SLT ISZERO PUSH2 0xE89 JUMPI PUSH1 0x0 DUP1 REVERT JUMPDEST PUSH2 0x9BE DUP3 PUSH2 0xD73 JUMP JUMPDEST PUSH1 0x0 PUSH1 0x20 DUP3 DUP5 SUB SLT ISZERO PUSH2 0xEA4 JUMPI PUSH1 0x0 DUP1 REVERT JUMPDEST PUSH2 0x9BE DUP3 PUSH2 0xE08 JUMP JUMPDEST PUSH1 0x0 DUP1 PUSH1 0x40 DUP4 DUP6 SUB SLT ISZERO PUSH2 0xEC0 JUMPI PUSH1 0x0 DUP1 REVERT JUMPDEST PUSH2 0xEC9 DUP4 PUSH2 0xE08 JUMP JUMPDEST SWAP2 POP PUSH2 0xED7 PUSH1 0x20 DUP5 ADD PUSH2 0xE08 JUMP JUMPDEST SWAP1 POP SWAP3 POP SWAP3 SWAP1 POP JUMP JUMPDEST PUSH4 0x4E487B71 PUSH1 0xE0 SHL PUSH1 0x0 MSTORE PUSH1 0x11 PUSH1 0x4 MSTORE PUSH1 0x24 PUSH1 0x0 REVERT JUMPDEST PUSH1 0x0 DUP3 PUSH2 0xF13 JUMPI PUSH4 0x4E487B71 PUSH1 0xE0 SHL PUSH1 0x0 MSTORE PUSH1 0x12 PUSH1 0x4 MSTORE PUSH1 0x24 PUSH1 0x0 REVERT JUMPDEST POP DIV SWAP1 JUMP JUMPDEST DUP1 DUP3 ADD DUP1 DUP3 GT ISZERO PUSH2 0x66E JUMPI PUSH2 0x66E PUSH2 0xEE0 JUMP JUMPDEST DUP1 DUP3 MUL DUP2 ISZERO DUP3 DUP3 DIV DUP5 EQ OR PUSH2 0x66E JUMPI PUSH2 0x66E PUSH2 0xEE0 JUMP JUMPDEST PUSH1 0x1 DUP2 DUP2 SHR SWAP1 DUP3 AND DUP1 PUSH2 0xF56 JUMPI PUSH1 0x7F DUP3 AND SWAP2 POP JUMPDEST PUSH1 0x20 DUP3 LT DUP2 SUB PUSH2 0xF76 JUMPI PUSH4 0x4E487B71 PUSH1 0xE0 SHL PUSH1 0x0 MSTORE PUSH1 0x22 PUSH1 0x4 MSTORE PUSH1 0x24 PUSH1 0x0 REVERT JUMPDEST POP SWAP2 SWAP1 POP JUMP INVALID LOG2 PUSH5 0x6970667358 0x22 SLT KECCAK256 0xE7 0x1F 0xB7 0xC2 SWAP11 EQ 0xDE LOG2 CALL DUP7 SELFBALANCE 0x25 SWAP7 0x2B 0xA8 MUL 0xC1 EQ LOG2 0xBF 0xEB PUSH9 0xD20DAC776EDA93497 0xE3 PUSH5 0x736F6C6343 STOP ADDMOD EQ STOP CALLER "},"methodIdentifiers":{"BindWallet(bytes8)":"bd865439","RFID_Scanned(bytes8)":"42f2c986","allowance(address,address)":"dd62ed3e","approve(address,uint256)":"095ea7b3","balanceOf(address)":"70a08231","decimals()":"313ce567","getUserData(bytes8)":"d4ed78ab","getUserTokenBalance(bytes8)":"c6ccbea2","getUserWallet(bytes8)":"3960506e","isRegistered(bytes8)":"c9f1e9bc","name()":"06fdde03","rewardAmount()":"f7b2a7be","setUserData(bytes8)":"2b01f245","spendAndEarn(bytes8,uint256)":"02ab0cb2","symbol()":"95d89b41","tokenAddress()":"9d76ea58","totalSupply()":"18160ddd","transfer(address,uint256)":"a9059cbb","transferFrom(address,address,uint256)":"23b872dd","userData(bytes8)":"3101299e","userEarned(address)":"cba72540","userSpending(address)":"3619fdb6"}}}}}