{
  "_format": "hh-sol-artifact-1",
  "contractName": "RFID_IC",
  "sourceName": "contracts/Contract.sol",
  "abi": [
    {
      "inputs": [
        {
          "internalType": "uint256",
          "name": "_rewardAmount",
          "type": "uint256"
        }
      ],
      "stateMutability": "nonpayable",
      "type": "constructor"
    },
    {
      "inputs": [
        {
          "internalType": "address",
          "name": "spender",
          "type": "address"
        },
        {
          "internalType": "uint256",
          "name": "allowance",
          "type": "uint256"
        },
        {
          "internalType": "uint256",
          "name": "needed",
          "type": "uint256"
        }
      ],
      "name": "ERC20InsufficientAllowance",
      "type": "error"
    },
    {
      "inputs": [
        {
          "internalType": "address",
          "name": "sender",
          "type": "address"
        },
        {
          "internalType": "uint256",
          "name": "balance",
          "type": "uint256"
        },
        {
          "internalType": "uint256",
          "name": "needed",
          "type": "uint256"
        }
      ],
      "name": "ERC20InsufficientBalance",
      "type": "error"
    },
    {
      "inputs": [
        {
          "internalType": "address",
          "name": "approver",
          "type": "address"
        }
      ],
      "name": "ERC20InvalidApprover",
      "type": "error"
    },
    {
      "inputs": [
        {
          "internalType": "address",
          "name": "receiver",
          "type": "address"
        }
      ],
      "name": "ERC20InvalidReceiver",
      "type": "error"
    },
    {
      "inputs": [
        {
          "internalType": "address",
          "name": "sender",
          "type": "address"
        }
      ],
      "name": "ERC20InvalidSender",
      "type": "error"
    },
    {
      "inputs": [
        {
          "internalType": "address",
          "name": "spender",
          "type": "address"
        }
      ],
      "name": "ERC20InvalidSpender",
      "type": "error"
    },
    {
      "anonymous": false,
      "inputs": [
        {
          "indexed": true,
          "internalType": "address",
          "name": "owner",
          "type": "address"
        },
        {
          "indexed": true,
          "internalType": "address",
          "name": "spender",
          "type": "address"
        },
        {
          "indexed": false,
          "internalType": "uint256",
          "name": "value",
          "type": "uint256"
        }
      ],
      "name": "Approval",
      "type": "event"
    },
    {
      "anonymous": false,
      "inputs": [
        {
          "indexed": true,
          "internalType": "address",
          "name": "user",
          "type": "address"
        },
        {
          "indexed": false,
          "internalType": "uint256",
          "name": "amountSpent",
          "type": "uint256"
        },
        {
          "indexed": false,
          "internalType": "uint256",
          "name": "tokensEarned",
          "type": "uint256"
        }
      ],
      "name": "SpendingAndReward",
      "type": "event"
    },
    {
      "anonymous": false,
      "inputs": [
        {
          "indexed": true,
          "internalType": "address",
          "name": "from",
          "type": "address"
        },
        {
          "indexed": true,
          "internalType": "address",
          "name": "to",
          "type": "address"
        },
        {
          "indexed": false,
          "internalType": "uint256",
          "name": "value",
          "type": "uint256"
        }
      ],
      "name": "Transfer",
      "type": "event"
    },
    {
      "anonymous": false,
      "inputs": [
        {
          "indexed": false,
          "internalType": "bytes8",
          "name": "hexcode",
          "type": "bytes8"
        },
        {
          "indexed": false,
          "internalType": "uint256",
          "name": "tokenbalance",
          "type": "uint256"
        }
      ],
      "name": "UserRegistered",
      "type": "event"
    },
    {
      "inputs": [
        {
          "internalType": "bytes8",
          "name": "hexCode",
          "type": "bytes8"
        }
      ],
      "name": "BindWallet",
      "outputs": [],
      "stateMutability": "nonpayable",
      "type": "function"
    },
    {
      "inputs": [
        {
          "internalType": "bytes8",
          "name": "hexCode",
          "type": "bytes8"
        }
      ],
      "name": "RFID_Scanned",
      "outputs": [],
      "stateMutability": "nonpayable",
      "type": "function"
    },
    {
      "inputs": [
        {
          "internalType": "address",
          "name": "owner",
          "type": "address"
        },
        {
          "internalType": "address",
          "name": "spender",
          "type": "address"
        }
      ],
      "name": "allowance",
      "outputs": [
        {
          "internalType": "uint256",
          "name": "",
          "type": "uint256"
        }
      ],
      "stateMutability": "view",
      "type": "function"
    },
    {
      "inputs": [
        {
          "internalType": "address",
          "name": "spender",
          "type": "address"
        },
        {
          "internalType": "uint256",
          "name": "value",
          "type": "uint256"
        }
      ],
      "name": "approve",
      "outputs": [
        {
          "internalType": "bool",
          "name": "",
          "type": "bool"
        }
      ],
      "stateMutability": "nonpayable",
      "type": "function"
    },
    {
      "inputs": [
        {
          "internalType": "address",
          "name": "account",
          "type": "address"
        }
      ],
      "name": "balanceOf",
      "outputs": [
        {
          "internalType": "uint256",
          "name": "",
          "type": "uint256"
        }
      ],
      "stateMutability": "view",
      "type": "function"
    },
    {
      "inputs": [],
      "name": "decimals",
      "outputs": [
        {
          "internalType": "uint8",
          "name": "",
          "type": "uint8"
        }
      ],
      "stateMutability": "view",
      "type": "function"
    },
    {
      "inputs": [
        {
          "internalType": "bytes8",
          "name": "hexCode",
          "type": "bytes8"
        }
      ],
      "name": "getUserData",
      "outputs": [
        {
          "internalType": "address",
          "name": "",
          "type": "address"
        },
        {
          "internalType": "uint256",
          "name": "",
          "type": "uint256"
        }
      ],
      "stateMutability": "view",
      "type": "function"
    },
    {
      "inputs": [
        {
          "internalType": "bytes8",
          "name": "hexCode",
          "type": "bytes8"
        }
      ],
      "name": "getUserTokenBalance",
      "outputs": [
        {
          "internalType": "uint256",
          "name": "",
          "type": "uint256"
        }
      ],
      "stateMutability": "view",
      "type": "function"
    },
    {
      "inputs": [
        {
          "internalType": "bytes8",
          "name": "hexCode",
          "type": "bytes8"
        }
      ],
      "name": "getUserWallet",
      "outputs": [
        {
          "internalType": "address",
          "name": "",
          "type": "address"
        }
      ],
      "stateMutability": "view",
      "type": "function"
    },
    {
      "inputs": [
        {
          "internalType": "bytes8",
          "name": "hexCode",
          "type": "bytes8"
        }
      ],
      "name": "isRegistered",
      "outputs": [
        {
          "internalType": "bool",
          "name": "",
          "type": "bool"
        }
      ],
      "stateMutability": "view",
      "type": "function"
    },
    {
      "inputs": [],
      "name": "name",
      "outputs": [
        {
          "internalType": "string",
          "name": "",
          "type": "string"
        }
      ],
      "stateMutability": "view",
      "type": "function"
    },
    {
      "inputs": [],
      "name": "rewardAmount",
      "outputs": [
        {
          "internalType": "uint256",
          "name": "",
          "type": "uint256"
        }
      ],
      "stateMutability": "view",
      "type": "function"
    },
    {
      "inputs": [
        {
          "internalType": "bytes8",
          "name": "hexCode",
          "type": "bytes8"
        }
      ],
      "name": "setUserData",
      "outputs": [],
      "stateMutability": "nonpayable",
      "type": "function"
    },
    {
      "inputs": [
        {
          "internalType": "bytes8",
          "name": "hexCode",
          "type": "bytes8"
        },
        {
          "internalType": "uint256",
          "name": "_amountSpent",
          "type": "uint256"
        }
      ],
      "name": "spendAndEarn",
      "outputs": [],
      "stateMutability": "nonpayable",
      "type": "function"
    },
    {
      "inputs": [],
      "name": "symbol",
      "outputs": [
        {
          "internalType": "string",
          "name": "",
          "type": "string"
        }
      ],
      "stateMutability": "view",
      "type": "function"
    },
    {
      "inputs": [],
      "name": "tokenAddress",
      "outputs": [
        {
          "internalType": "address",
          "name": "",
          "type": "address"
        }
      ],
      "stateMutability": "view",
      "type": "function"
    },
    {
      "inputs": [],
      "name": "totalSupply",
      "outputs": [
        {
          "internalType": "uint256",
          "name": "",
          "type": "uint256"
        }
      ],
      "stateMutability": "view",
      "type": "function"
    },
    {
      "inputs": [
        {
          "internalType": "address",
          "name": "to",
          "type": "address"
        },
        {
          "internalType": "uint256",
          "name": "value",
          "type": "uint256"
        }
      ],
      "name": "transfer",
      "outputs": [
        {
          "internalType": "bool",
          "name": "",
          "type": "bool"
        }
      ],
      "stateMutability": "nonpayable",
      "type": "function"
    },
    {
      "inputs": [
        {
          "internalType": "address",
          "name": "from",
          "type": "address"
        },
        {
          "internalType": "address",
          "name": "to",
          "type": "address"
        },
        {
          "internalType": "uint256",
          "name": "value",
          "type": "uint256"
        }
      ],
      "name": "transferFrom",
      "outputs": [
        {
          "internalType": "bool",
          "name": "",
          "type": "bool"
        }
      ],
      "stateMutability": "nonpayable",
      "type": "function"
    },
    {
      "inputs": [
        {
          "internalType": "bytes8",
          "name": "",
          "type": "bytes8"
        }
      ],
      "name": "userData",
      "outputs": [
        {
          "internalType": "address",
          "name": "walletAddress",
          "type": "address"
        },
        {
          "internalType": "uint256",
          "name": "tokenBalance",
          "type": "uint256"
        },
        {
          "internalType": "bool",
          "name": "exists",
          "type": "bool"
        },
        {
          "internalType": "bool",
          "name": "withWallet",
          "type": "bool"
        }
      ],
      "stateMutability": "view",
      "type": "function"
    },
    {
      "inputs": [
        {
          "internalType": "address",
          "name": "",
          "type": "address"
        }
      ],
      "name": "userEarned",
      "outputs": [
        {
          "internalType": "uint256",
          "name": "",
          "type": "uint256"
        }
      ],
      "stateMutability": "view",
      "type": "function"
    },
    {
      "inputs": [
        {
          "internalType": "address",
          "name": "",
          "type": "address"
        }
      ],
      "name": "userSpending",
      "outputs": [
        {
          "internalType": "uint256",
          "name": "",
          "type": "uint256"
        }
      ],
      "stateMutability": "view",
      "type": "function"
    }
  ],
  "bytecode": "0x60806040523480156200001157600080fd5b50604051620011f1380380620011f18339810160408190526200003491620000a4565b6040518060400160405280600e81526020016d2830b6b0b9b0b432902a37b5b2b760911b815250604051806040016040528060048152602001634641524560e01b815250816003908162000089919062000163565b50600462000098828262000163565b5050506006556200022f565b600060208284031215620000b757600080fd5b5051919050565b634e487b7160e01b600052604160045260246000fd5b600181811c90821680620000e957607f821691505b6020821081036200010a57634e487b7160e01b600052602260045260246000fd5b50919050565b601f8211156200015e57600081815260208120601f850160051c81016020861015620001395750805b601f850160051c820191505b818110156200015a5782815560010162000145565b5050505b505050565b81516001600160401b038111156200017f576200017f620000be565b6200019781620001908454620000d4565b8462000110565b602080601f831160018114620001cf5760008415620001b65750858301515b600019600386901b1c1916600185901b1785556200015a565b600085815260208120601f198616915b828110156200020057888601518255948401946001909101908401620001df565b50858210156200021f5787850151600019600388901b60f8161c191681555b5050505050600190811b01905550565b610fb2806200023f6000396000f3fe608060405234801561001057600080fd5b50600436106101425760003560e01c806370a08231116100b8578063c6ccbea21161007c578063c6ccbea214610386578063c9f1e9bc14610399578063cba72540146103ac578063d4ed78ab146103cc578063dd62ed3e146103fe578063f7b2a7be1461043757600080fd5b806370a082311461031c57806395d89b41146103455780639d76ea581461034d578063a9059cbb14610360578063bd8654391461037357600080fd5b80632b01f2451161010a5780632b01f245146101c25780633101299e146101d5578063313ce5671461024c5780633619fdb61461025b5780633960506e1461027b57806342f2c9861461030957600080fd5b806302ab0cb21461014757806306fdde031461015c578063095ea7b31461017a57806318160ddd1461019d57806323b872dd146101af575b600080fd5b61015a610155366004610d90565b610440565b005b6101646105c8565b6040516101719190610dba565b60405180910390f35b61018d610188366004610e1f565b61065a565b6040519015158152602001610171565b6002545b604051908152602001610171565b61018d6101bd366004610e3b565b610674565b61015a6101d0366004610e77565b610698565b61021a6101e3366004610e77565b6009602052600090815260409020805460018201546002909201546001600160a01b03909116919060ff8082169161010090041684565b604080516001600160a01b03909516855260208501939093529015159183019190915215156060820152608001610171565b60405160128152602001610171565b6101a1610269366004610e92565b60086020526000908152604090205481565b6102f1610289366004610e77565b6001600160c01b031916600090815260096020908152604091829020825160808101845281546001600160a01b031680825260018301549382019390935260029091015460ff8082161515948301949094526101009004909216151560609092019190915290565b6040516001600160a01b039091168152602001610171565b61015a610317366004610e77565b610767565b6101a161032a366004610e92565b6001600160a01b031660009081526020819052604090205490565b6101646107a6565b6005546102f1906001600160a01b031681565b61018d61036e366004610e1f565b6107b5565b61015a610381366004610e77565b6107c3565b6101a1610394366004610e77565b6108d2565b61018d6103a7366004610e77565b6109c5565b6101a16103ba366004610e92565b60076020526000908152604090205481565b6103df6103da366004610e77565b6109ec565b604080516001600160a01b039093168352602083019190915201610171565b6101a161040c366004610ead565b6001600160a01b03918216600090815260016020908152604080832093909416825291909152205490565b6101a160065481565b600061044b836109c5565b506001905061045e565b60405180910390fd5b600061046b606484610ef6565b6001600160c01b031985166000908152600960209081526040808320546001600160a01b0316835260089091528120805492935085929091906104af908490610f18565b90915550506006546000906104c49083610f2b565b6001600160c01b031986166000908152600960209081526040808320546001600160a01b031683526007909152812080549293508392909190610508908490610f18565b90915550506001600160c01b0319851660009081526009602052604090205461054b906001600160a01b031661054683670de0b6b3a7640000610f2b565b610a54565b6001600160c01b03198516600081815260096020818152604080842080546001600160a01b0316855284835281852054959094529181526001909201929092558151868152908101839052815133927e07cc770b487aeffa608dcc3694d4da181b7f37827837479d33beb4e18d3c7b928290030190a25050505050565b6060600380546105d790610f42565b80601f016020809104026020016040519081016040528092919081815260200182805461060390610f42565b80156106505780601f1061062557610100808354040283529160200191610650565b820191906000526020600020905b81548152906001019060200180831161063357829003601f168201915b5050505050905090565b600033610668818585610a8e565b60019150505b92915050565b600033610682858285610a9b565b61068d858585610b19565b506001949350505050565b6001600160c01b031981166000908152600960205260409020600281015460ff16156107065760405162461bcd60e51b815260206004820152601760248201527f5246494420616c726561647920726567697374657265640000000000000000006044820152606401610455565b6000600182810182905560028301805460ff19169091179055604080516001600160c01b03198516815260208101929092527fc5a67488be3f7d5c212aac7ee2b6dec549bcfab2491e4a897a392221a172b70e910160405180910390a15050565b6001600160c01b0319811660009081526009602052604090206002015460ff161561079a57610795816109ec565b505050565b6107a381610698565b50565b6060600480546105d790610f42565b600033610668818585610b19565b6107cc816109c5565b156108195760405162461bcd60e51b815260206004820152601960248201527f5573657220686173206578697374696e672077616c6c65742e000000000000006044820152606401610455565b6001600160c01b0319811660009081526009602052604090206002015460ff1661087d5760405162461bcd60e51b815260206004820152601560248201527414919251081a5cdb89dd081c9959da5cdd195c9959605a1b6044820152606401610455565b6001600160c01b031916600081815260096020818152604080842080546001600160a01b03191633908117825585528483529084205494909352526001810191909155600201805461ff001916610100179055565b6001600160c01b031981166000908152600960209081526040808320815160808101835281546001600160a01b031681526001820154938101939093526002015460ff80821615159284019290925261010090041615156060820152610937836109c5565b61098e5760405162461bcd60e51b815260206004820152602260248201527f4e6f2077616c6c657420636f6e6e656374656420666f72207468697320524649604482015261221760f11b6064820152608401610455565b6001600160c01b031983166000908152600960209081526040808320546001600160a01b03168352908290529020545b9392505050565b6001600160c01b031916600090815260096020526040902060020154610100900460ff1690565b6001600160c01b031916600090815260096020908152604091829020825160808101845281546001600160a01b0316808252600183015493820184905260029092015460ff808216151595830195909552610100900490931615156060909301929092529091565b6001600160a01b038216610a7e5760405163ec442f0560e01b815260006004820152602401610455565b610a8a60008383610b74565b5050565b6107958383836001610c9e565b6001600160a01b038381166000908152600160209081526040808320938616835292905220546000198114610b135781811015610b0457604051637dc7a0d960e11b81526001600160a01b03841660048201526024810182905260448101839052606401610455565b610b1384848484036000610c9e565b50505050565b6001600160a01b038316610b4357604051634b637e8f60e11b815260006004820152602401610455565b6001600160a01b038216610b6d5760405163ec442f0560e01b815260006004820152602401610455565b6107958383835b6001600160a01b038316610b9f578060026000828254610b949190610f18565b90915550610c119050565b6001600160a01b03831660009081526020819052604090205481811015610bf25760405163391434e360e21b81526001600160a01b03851660048201526024810182905260448101839052606401610455565b6001600160a01b03841660009081526020819052604090209082900390555b6001600160a01b038216610c2d57600280548290039055610c4c565b6001600160a01b03821660009081526020819052604090208054820190555b816001600160a01b0316836001600160a01b03167fddf252ad1be2c89b69c2b068fc378daa952ba7f163c4a11628f55a4df523b3ef83604051610c9191815260200190565b60405180910390a3505050565b6001600160a01b038416610cc85760405163e602df0560e01b815260006004820152602401610455565b6001600160a01b038316610cf257604051634a1406b160e11b815260006004820152602401610455565b6001600160a01b0380851660009081526001602090815260408083209387168352929052208290558015610b1357826001600160a01b0316846001600160a01b03167f8c5be1e5ebec7d5bd14f71427d1e84f3dd0314c0f7b2291e5b200ac8c7c3b92584604051610d6591815260200190565b60405180910390a350505050565b80356001600160c01b031981168114610d8b57600080fd5b919050565b60008060408385031215610da357600080fd5b610dac83610d73565b946020939093013593505050565b600060208083528351808285015260005b81811015610de757858101830151858201604001528201610dcb565b506000604082860101526040601f19601f8301168501019250505092915050565b80356001600160a01b0381168114610d8b57600080fd5b60008060408385031215610e3257600080fd5b610dac83610e08565b600080600060608486031215610e5057600080fd5b610e5984610e08565b9250610e6760208501610e08565b9150604084013590509250925092565b600060208284031215610e8957600080fd5b6109be82610d73565b600060208284031215610ea457600080fd5b6109be82610e08565b60008060408385031215610ec057600080fd5b610ec983610e08565b9150610ed760208401610e08565b90509250929050565b634e487b7160e01b600052601160045260246000fd5b600082610f1357634e487b7160e01b600052601260045260246000fd5b500490565b8082018082111561066e5761066e610ee0565b808202811582820484141761066e5761066e610ee0565b600181811c90821680610f5657607f821691505b602082108103610f7657634e487b7160e01b600052602260045260246000fd5b5091905056fea2646970667358221220e71fb7c29a14dea2f1864725962ba802c114a2bfeb680d20dac776eda93497e364736f6c63430008140033",
  "linkReferences": {},
  "deployedLinkReferences": {}
}